:060000000A128A110C280F
:10000800FE00030EF1000A08F2000A128A1179288C
:100018000A128A110F28F50183010A128A119628FB
:1000280002308316031788008901831603130F080B
:100038008F3940388F000F14233085008312031343
:100048008501831603138801831203138801051C95
:100058002E282F2861281030831603138700831257
:1000680003138701F03094051412941683160313B2
:100078001417941775088312031393008B170B1723
:10008800831603130C17831203130C133F309F05B9
:10009800831603131F129F12831203131F08C339F9
:1000A80004389F00831603139F13831203131F142E
:1000B8000330F300F30B5E287828183083160313F7
:1000C80087008312031387011408F0390438940059
:1000D8001412941683160313141794138C150B1704
:1000E8008B17831203138C110800831203130C1F40
:1000F8007E287F2888280C131E08F0007008F50059
:1001080075089300750888008C1D8B288C288F280B
:10011800130888008C1172088A00710E8300FE0E85
:100128007E0E09000A128A1114200A128A118312FB
:100138000313051CA028A1289B289F18A428A528DC
:100148009B280330F400F40BA728831203139F1491
:080158009B280A128A110C28F1
:08400000FF3FFF3FFF3FFF3FC0
:04400E00D420FF3F7C
:00000001FF
